:100000000C9463000C948B000C948B000C940405EE
:100010000C9404050C9404050C948B000C948B0038
:100020000C948B000C948B000C948B000C948B0024
:100030000C948B000C948B000C948B000C948B0014
:100040000C9462040C948B000C94D2040C94AC04B9
:100050000C948B000C948B000C948B000C948B00F4
:100060000C948B000C948B000000000024002700EF
:100070002A0000000008000201000003040700003D
:1000800000000000000000000000230026002900FE
:1000900000000000250028002B00040404040404D0
:1000A0000404020202020202030303030303010227
:1000B00004081020408001020408102001020408F6
:1000C00010207C05310911241FBECFEFD8E0DEBF20
:1000D000CDBF22E0AAE7B1E001C01D92A538B2076A
:1000E000E1F711E0A0E0B1E0E0EBF7E102C005903C
:1000F0000D92AA37B107D9F710E0C2E6D0E004C0EC
:100100002197FE010E94C50BC136D107C9F70E9495
:1001100027060C94CB0B0C94000090E0FC01EE58E9
:10012000FF4F2491FC01E255FF4F3491FC01E6564C
:10013000FF4FE491EE23C9F0222339F0233001F17F
:10014000A8F4213019F1223029F1F0E0EE0FFF1F61
:10015000E057FF4FA591B4918FB7F894EC916111DE
:1001600026C030953E233C938FBF08952730A9F0D9
:100170002830C9F0243049F7809180008F7D03C07A
:10018000809180008F7780938000DFCF84B58F7758
:1001900084BDDBCF84B58F7DFBCF8091B0008F779E
:1001A0008093B000D2CF8091B0008F7DF9CF3E2BED
:1001B000DACFCF93DF9390E0FC01E255FF4F24911B
:1001C00086569F4FFC0184918823D1F090E0880FE0
:1001D000991FFC01E859FF4FA591B491FC01E0572C
:1001E000FF4FC591D49161110EC09FB7F8948C91C7
:1001F000E22FE0958E238C932881E223E8839FBF32
:10020000DF91CF9108958FB7F894EC91E22BEC93A6
:100210008FBFF6CFAF92BF92CF92DF92EF92FF9255
:100220000F931F93CF93DF936C017B018B01040F1E
:10023000151FEB015E01AE18BF08C017D10759F0BA
:100240006991D601ED91FC910190F081E02DC601FC
:100250000995892B79F7C501DF91CF911F910F91F6
:10026000FF90EF90DF90CF90BF90AF900895FC018A
:10027000538D448D252F30E0842F90E0821B930B0B
:10028000541710F0CF96089501970895FC01918DB1
:10029000828D981761F0A28DAE0FBF2FB11D5D96B4
:1002A0008C91928D9F5F9F73928F90E008958FEF56
:1002B0009FEF0895FC01918D828D981731F0828D0A
:1002C000E80FF11D858D90E008958FEF9FEF089561
:1002D0002FB7F8948091C5019091C601A091C701F4
:1002E000B091C8012FBF8093D1019093D201A09308
:1002F000D301B093D40189EC91E00E945A0197FF99
:1003000026C02FB7F8948091C5019091C601A091A5
:10031000C701B091C8012FBF4091D1015091D201C6
:100320006091D3017091D401841B950BA60BB70B80
:100330004091CD015091CE016091CF017091D001DB
:1003400084179507A607B707B0F28FEF9FEF0895C0
:10035000FC01918D228D892F90E0805C9F4F821B44
:1003600091098F739927089589EC91E00E94A80163
:1003700021E0892B09F420E0822F089580E090E0AD
:10038000892B29F00E94B40181110C94000008957A
:10039000FC01A48DA80FB92FB11DA35ABF4F2C91FA
:1003A000848D90E001968F739927848FA689B789F1
:1003B0002C93A089B1898C91837080648C93938DE8
:1003C000848D981306C00288F389E02D80818F7D8B
:1003D00080830895EF92FF920F931F93CF93DF9343
:1003E000EC0181E0888F9B8D8C8D98131AC0E88971
:1003F000F989808185FF15C09FB7F894EE89FF8940
:100400006083E889F98980818370806480839FBFDD
:1004100081E090E0DF91CF911F910F91FF90EF90DD
:100420000895F62E0B8D10E00F5F1F4F0F731127ED
:10043000E02E8C8D8E110CC00FB607FCFACFE88928
:10044000F989808185FFF5CFCE010E94C801F1CFE7
:10045000EB8DEC0FFD2FF11DE35AFF4FF0829FB79C
:10046000F8940B8FEA89FB8980818062CFCFCF938C
:10047000DF93EC01888D8823B9F0AA89BB89E889CC
:10048000F9898C9185FD03C0808186FD0DC00FB672
:1004900007FCF7CF8C9185FFF2CF808185FFEDCFF0
:1004A000CE010E94C801E9CFDF91CF91089520913C
:1004B000BC013091BD012817390771F49091BA0140
:1004C0008091BB01981741F0E091BA01F0E0E65845
:1004D000FE4F808190E008958FEF9FEF089508957B
:1004E000EF92FF920F931F93CF93DF93DC015C9603
:1004F000ED90FC905D97E114F10479F481E090E0D7
:1005000013969C938E93129790E080E0DF91CF91A9
:100510001F910F91FF90EF9008955196ED91FC91EE
:10052000529750968C915097982F90950FB75E9652
:100530002C915E97122F127021FD6095F894208106
:10054000112319F1282B2083E7012197F1F728E0E7
:10055000462F50E0308160FF1AC0382B3083E7010E
:100560002197F1F7BA0175956795215089F7112305
:1005700081F08081892380830FBF5C968D919C914F
:100580000197F1F781E090E0C1CF2923DCCF392337
:10059000E5CF9081892BEFCF2091BC013091BD0137
:1005A0002817390761F48091BB012091BA0190E0CE
:1005B000805C9F4F821B91098F739927089590E06B
:1005C00080E008952091BC013091BD0128173907C2
:1005D000B9F49091BA018091BB01981789F0E0912C
:1005E000BA01F0E0E658FE4F80812091BA0130E078
:1005F0002F5F3F4F2F7333272093BA0190E0089568
:100600008FEF9FEF089590E080E00895FB01019047
:100610000020E9F73197AF01461B570BDC01ED9144
:10062000FC910280F381E02D09948F929F92AF920A
:10063000BF92EF92FF920F931F93CF93DF93CDB7AB
:10064000DEB7A1970FB6F894DEBF0FBECDBF7C0119
:10065000FA01CB0119A2223008F42AE08E010F5DC5
:100660001F4F822E912CB12CA12CBF01A50194010A
:100670000E94A30BF901CA016A300CF5605DD80134
:100680006E938D01232B242B252B79F790E080E0AE
:10069000109721F0BD01C7010E940603A1960FB675
:1006A000F894DEBF0FBECDBFDF91CF911F910F91A8
:1006B000FF90EF90BF90AF909F908F900895695CEE
:1006C000DECFCF93DF93BC0186E692E00E94060363
:1006D000EC0164E271E086E692E00E9406038C0F72
:1006E0009D1FDF91CF9108952F923F924F925F927D
:1006F0006F927F928F929F92AF92BF92CF92DF9232
:10070000EF92FF921F93CF93DF93EC016A017B017D
:10071000722EAB019601CB01B6010E949E0B67E2DF
:1007200071E0811126C046015701E894B7F82FEF18
:100730003FEF4FE75FE7C501B4010E949E0B8111B7
:100740000CC02FEF3FEF4FE75FE7C501B4010E94F8
:100750004D096BE271E0181664F02FEF3FEF4FE7A1
:100760005FE4C701B6010E94990B1816B4F46FE25A
:1007700071E0CE01DF91CF911F91FF90EF90DF905C
:10078000CF90BF90AF909F908F907F906F905F9031
:100790004F903F902F900C9406032FEF3FEF4FE7C1
:1007A0005FECC701B6010E944D0987FDE0CF20E054
:1007B00030E0A901C701B6010E944D09312C212C5E
:1007C00087FF0DC0E881F9810190F081E02D6DE295
:1007D000CE0109951C01F7FAF094F7F8F09410E0B7
:1007E00060E070E080E09FE3711641F020E030E0CF
:1007F00040E251E40E94F80A1F5FF6CFA70196017C
:100800000E948C0A2B013C010E946A0B4B015C0187
:100810002AE0BC01A401CE010E9415037C01E20C78
:10082000F31C1123E1F1C501B4010E9452099B019F
:10083000AC01C301B2010E948B0A4B015C01E8814B
:10084000F9810190F081E02D6EE2CE010995E80E6C
:10085000F91E115020F120E030E040E251E4C501E2
:10086000B4010E94B3092B013C010E946A0B4B01A9
:10087000B12CA12C2AE0B501A401CE010E941503E0
:10088000E80EF91EC501B4010E9452099B01AC019A
:10089000C301B2010E948B0A4B015C01DACFC70190
:1008A000DF91CF911F91FF90EF90DF90CF90BF909D
:1008B000AF909F908F907F906F905F904F903F9000
:1008C0002F9008951F920F920FB60F9211242F931D
:1008D0003F938F939F93AF93BF938091C501909166
:1008E000C601A091C701B091C8013091C40123E0B5
:1008F000230F2D3758F50196A11DB11D2093C4017A
:100900008093C5019093C601A093C701B093C8011D
:100910008091C0019091C101A091C201B091C30129
:100920000196A11DB11D8093C0019093C101A093B8
:10093000C201B093C301BF91AF919F918F913F913D
:100940002F910F900FBE0F901F90189526E8230F40
:100950000296A11DB11DD2CF1F920F920FB60F921A
:1009600011242F933F934F935F936F937F938F93B4
:100970009F93AF93BF93EF93FF9389EC91E00E9415
:10098000C801FF91EF91BF91AF919F918F917F919E
:100990006F915F914F913F912F910F900FBE0F90EC
:1009A0001F9018951F920F920FB60F9211242F933C
:1009B0008F939F93EF93FF93E091D901F091DA0128
:1009C0008081E091DF01F091E00182FD1BC0908108
:1009D0008091E2018F5F8F732091E301821741F0D4
:1009E000E091E201F0E0E753FE4F958F8093E20142
:1009F000FF91EF919F918F912F910F900FBE0F90CC
:100A00001F9018958081F4CF1F920F920FB60F920E
:100A100011242F933F934F935F936F937F938F9303
:100A20009F93AF93BF93EF93FF93E091BC01F0913D
:100A3000BD01309749F0A685B7858585968D91FFD4
:100A400014C09C918923A1F4FF91EF91BF91AF91C4
:100A50009F918F917F916F915F914F913F912F91D6
:100A60000F900FBE0F901F9018959C91892361F7EE
:100A7000A389B4899C918589809589238C938689E3
:100A800097890197F1F7608D718DA685B78555859A
:100A900038E020E0CB010197F1F7822F90E09595A7
:100AA0008795282F4C91452309F02068315091F704
:100AB000868D81FD20958091BB0190E001968F731A
:100AC00099273091BA01381799F0A091BB01B0E095
:100AD000A658BE4F2C938093BB01828D938D0197B6
:100AE000F1F7A389B4898C919589892B8C93ACCF2C
:100AF000868D8160868FF1CF1092CC011092CB0150
:100B000088EE93E0A0E0B0E08093CD019093CE0119
:100B1000A093CF01B093D00124E031E03093CA011B
:100B20002093C90125EC30E03093D6012093D50104
:100B300024EC30E03093D8012093D70120EC30E052
:100B40003093DA012093D90121EC30E03093DC01BD
:100B50002093DB0122EC30E03093DE012093DD01B5
:100B600026EC30E03093E0012093DF011092E201A7
:100B70001092E3011092E4011092E50110926902D3
:100B80001092680280936A0290936B02A0936C02A9
:100B9000B0936D0286E191E09093670280936602C4
:100BA00010927D0210927C0210927F0210927E02BF
:100BB000109281021092800210928302109282029F
:100BC000609184026E7F6D7F609384026695617090
:100BD00081E068278DE00E948D0061E08DE00E9439
:100BE000D900EBEBF0E0E491E0937602E7EAF0E085
:100BF000E491F0E0EE0FFF1FE057FF4F85919491D5
:100C0000909378028093770260E082E00E94D9009E
:100C10008091840281FD04C061E082E00E948D0029
:100C200082E080937202E0EBF0E0E491E0937302E3
:100C3000ECE9F0E0E491F0E0EE0FFF1FEA57FF4F20
:100C4000859194919093750280937402089578949D
:100C500084B5826084BD84B5816084BD85B58260C1
:100C600085BD85B5816085BD80916E008160809372
:100C70006E001092810080918100826080938100DB
:100C800080918100816080938100809180008160EB
:100C9000809380008091B10084608093B100809146
:100CA000B00081608093B00080917A00846080936E
:100CB0007A0080917A00826080937A0080917A0035
:100CC000816080937A0080917A00806880937A00B6
:100CD0001092C100C3E061E08C2F0E94D90060E057
:100CE0008C2F0E948D00CF5FCD30A9F7E091D90104
:100CF000F091DA0182E08083E091D501F091D60194
:100D00001082E091D701F091D8018FEC808310928E
:100D1000E101E091DD01F091DE0186E08083E09168
:100D2000DB01F091DC01808180618083E091DB0157
:100D3000F091DC01808188608083E091DB01F0919B
:100D4000DC01808180688083E091DB01F091DC012F
:100D500080818F7D80831092810210928002109298
:100D60007F0210927E0210927D0210927C028DE929
:100D700091E0909383028093820290917202963167
:100D800008F047C02DEB30E030937D0220937C02C9
:100D90002BE931E030937F0220937E022CE231E098
:100DA00030938102209380022091680084E0983083
:100DB00048F031E09E3008F430E081E001C0880F57
:100DC0003A95EAF7822B809368002DE630E0983060
:100DD00050F02BE630E09E3030F02CE630E09631DB
:100DE00010F030E020E030937A0220937902292F2E
:100DF00030E0983008F0ACC081E001C0880F9A95CF
:100E0000EAF780937B02809182029091830201979E
:100E1000F1F78091800290918102892B49F1E09154
:100E2000BC01F091BD0182E0E636F80709F1309788
:100E300039F0A389B4899C918589809589238C9305
:100E4000809184028E7F809384021092BB01109265
:100E5000BA0186E692E09093BD018093BC01E091D7
:100E60007902F0917A02808190917B02892B8083B4
:100E700083E391E00E94610386E391E00E946103B5
:100E800086E692E00E94CC02892B09F06EC0C0E099
:100E9000D0E0BB24B39489EC91E00E94A80118161D
:100EA00019060CF0C3C10E946801FC0197FDA1C1A5
:100EB0008D32910509F063C0412C512C80E8682ED9
:100EC0008FE3782EC12CD12C760110E000E0E130C8
:100ED000F10559F1ED32F10509F45EC0EE32F1058C
:100EE00009F45CC0CF01C0970A97F8F4AAE0B0E01B
:100EF000A70196010E94710A6F01FF0FEE08FF081B
:100F0000C60ED71EE81EF91E80E3C81AD108E108F4
:100F1000F108112351F02DEC3CEC4CEC5DE3C301E6
:100F2000B2010E94B3092B013C0189EC91E00E94BF
:100F300046010E946801FC01C0970A9740F2EE3218
:100F4000F10571F5112319F2102F01112FC03CC0CA
:100F50009E3040F42850310981E001C0880F2A9565
:100F6000EAF74FCF2E503109F7CF86E692E00E9484
:100F7000E202682F89EC91E00E94EA0181CFC097DC
:100F80000A9708F499CFEE32F10509F495CF89EC70
:100F900091E00E94460187CF01E0C7CF11E0C5CFA5
:100FA000E130F10509F493CF002341F0F094E0948F
:100FB000D094C094C11CD11CE11CF11CC701B60126
:100FC0000E945409112341F0C701B6010E9454093F
:100FD000A30192010E94B3099B01AC0160E070EE95
:100FE00083E894E40E948B0A6B017C0120E030E0EE
:100FF00048EC52E40E94990B61E018160CF060E096
:1010000083E00E948D0020E030E048E453E4C70113
:10101000B6010E94990B61E018160CF060E084E0C4
:101020000E948D0020E030E046E953E4C701B6019C
:101030000E94990B61E018160CF060E085E00E94B8
:101040008D0020E030E048EC53E4C701B6010E9477
:10105000990B61E018160CF060E086E00E948D00AC
:1010600020E030E04AEF53E4C701B6010E94990B3B
:1010700061E018160CF060E087E00E948D0020E02F
:1010800030E046E154E4C701B6010E94990B61E0EB
:1010900018160CF060E088E00E948D0020E030E03F
:1010A0004FE254E4C701B6010E94990B61E01816A3
:1010B0000CF060E089E00E948D0020E030E048E420
:1010C00054E4C701B6010E94990B61E018160CF0B8
:1010D00060E08AE00E948D0020E030E041E654E4C8
:1010E000C701B6010E94990B61E018160CF060E090
:1010F0008BE00E948D0020E030E04AE754E4C70115
:10110000B6010E94990B61E018160CF060E08CE0CB
:101110000E948D0020E030E041E654E4C701B601B2
:101120000E94990B18160CF068C020E030E84DE6DC
:1011300054E4C701B6010E944D0987FF5EC080914B
:10114000BF0181111CC086E391E00E94610380E42D
:1011500091E00E94610366E571E086E692E00E94FC
:10116000060322E0B701A60186E692E00E9474031E
:101170006AE186E692E00E947002B092BF0120E030
:1011800030E84DE654E4C701B6010E94990B1816E9
:10119000BCF58091BE0181111CC086E391E00E94E4
:1011A000610384E691E00E94610366E571E086E6F2
:1011B00092E00E94060322E0B701A60186E692E0D3
:1011C0000E9474036AE186E692E00E947002B09287
:1011D000BE0186E692E00E94CC02892BA1F086E651
:1011E00092E00E94E202682F89EC91E00E94EA01FD
:1011F000F0CF60E070E0CB01EFCE1092BF01BFCF27
:101200001092BE01E6CF66E571E089EC91E00E94A4
:10121000060322E0B701A60189EC91E00E94740365
:1012200064E271E089EC91E00E94060386E692E0B8
:101230000E94CC02181619064CF486E692E00E9431
:10124000E202682F89EC91E00E94EA01209709F4FC
:1012500022CE0E94B401882309F41DCE0E94000012
:101260001ACE86E191E090936702809366028091A6
:10127000BC019091BD018656924071F4E0917902D3
:10128000F0917A02908180917B02809589238083FE
:101290001092BD011092BC0108950E948F0908F4BC
:1012A00081E00895E89409C097FB3EF490958095FD
:1012B000709561957F4F8F4F9F4F9923A9F0F92F1C
:1012C00096E9BB279395F695879577956795B7959A
:1012D000F111F8CFFAF4BB0F11F460FF1BC06F5F80
:1012E0007F4F8F4F9F4F16C0882311F096E911C092
:1012F000772321F09EE8872F762F05C0662371F0B3
:1013000096E8862F70E060E02AF09A95660F771FC6
:10131000881FDAF7880F9695879597F90895990FA2
:101320000008550FAA0BE0E8FEEF16161706E807AF
:10133000F907C0F012161306E407F50798F0621BD0
:10134000730B840B950B39F40A2661F0232B242BA5
:10135000252B21F408950A2609F4A140A6958FEFC4
:10136000811D811D08950E94C6090C94370A0E94B0
:10137000290A38F00E94300A20F0952311F00C94CD
:10138000200A0C94260A11240C946B0A0E94480A25
:1013900070F3959FC1F3950F50E0551F629FF001C8
:1013A000729FBB27F00DB11D639FAA27F00DB11DE1
:1013B000AA1F649F6627B00DA11D661F829F22276A
:1013C000B00DA11D621F739FB00DA11D621F839FF1
:1013D000A00D611D221F749F3327A00D611D231FC7
:1013E000849F600D211D822F762F6A2F11249F5715
:1013F00050409AF0F1F088234AF0EE0FFF1FBB1F18
:10140000661F771F881F91505040A9F79E3F5105D6
:1014100080F00C94200A0C946B0A5F3FE4F3983E32
:10142000D4F3869577956795B795F795E7959F5F80
:10143000C1F7FE2B880F911D9695879597F9089512
:1014400097F99F6780E870E060E008959FEF80EC77
:10145000089500240A94161617061806090608951A
:1014600000240A9412161306140605060895092E80
:101470000394000C11F4882352F0BB0F40F4BF2BEF
:1014800011F460FF04C06F5F7F4F8F4F9F4F08952F
:1014900057FD9058440F551F59F05F3F71F0479525
:1014A000880F97FB991F61F09F3F79F0879508950A
:1014B000121613061406551FF2CF4695F1DF08C029
:1014C000161617061806991FF1CF86957105610546
:1014D00008940895E894BB2766277727CB0197F9EE
:1014E00008950E947C0AA59F900DB49F900DA49F23
:1014F000800D911D11240895A29FB001B39FC001DA
:10150000A39F700D811D1124911DB29F700D811D2F
:101510001124911D08955058BB27AA270E94A30AA1
:101520000C94370A0E94290A38F00E94300A20F0F1
:1015300039F49F3F19F426F40C94260A0EF4E09532
:10154000E7FB0C94200AE92F0E94480A58F3BA17C7
:10155000620773078407950720F079F4A6F50C94C9
:101560006A0A0EF4E0950B2EBA2FA02D0B01B901DB
:1015700090010C01CA01A0011124FF27591B99F009
:10158000593F50F4503E68F11A16F040A22F232F15
:10159000342F4427585FF3CF469537952795A79565
:1015A000F0405395C9F77EF41F16BA0B620B730B0C
:1015B000840BBAF09150A1F0FF0FBB1F661F771F7D
:1015C000881FC2F70EC0BA0F621F731F841F48F432
:1015D000879577956795B795F7959E3F08F0B0CFBB
:1015E0009395880F08F09927EE0F979587950895A2
:1015F0000E940C0B0C94370A0E94300A58F00E948B
:10160000290A40F029F45F3F29F00C94200A511177
:101610000C946B0A0C94260A0E94480A68F39923DA
:10162000B1F3552391F3951B550BBB27AA276217DE
:101630007307840738F09F5F5F4F220F331F441FEB
:10164000AA1FA9F335D00E2E3AF0E0E832D091501F
:101650005040E695001CCAF72BD0FE2F29D0660F0C
:10166000771F881FBB1F261737074807AB07B0E84F
:1016700009F0BB0B802DBF01FF2793585F4F3AF055
:101680009E3F510578F00C94200A0C946B0A5F3F42
:10169000E4F3983ED4F3869577956795B795F795DB
:1016A0009F5FC9F7880F911D9695879597F90895C3
:1016B000E1E0660F771F881FBB1F6217730784075F
:1016C000BA0720F0621B730B840BBA0BEE1F88F76E
:1016D000E09508950E94500A88F09F5798F0B92F1E
:1016E0009927B751B0F0E1F0660F771F881F991F57
:1016F0001AF0BA95C9F714C0B13091F00E946A0A85
:10170000B1E008950C946A0A672F782F8827B85F94
:1017100039F0B93FCCF3869577956795B395D9F7AE
:101720003EF490958095709561957F4F8F4F9F4FB8
:1017300008950E948F0908F48FEF08950E948F0981
:10174000880B990B0895A1E21A2EAA1BBB1BFD0161
:101750000DC0AA1FBB1FEE1FFF1FA217B307E40790
:10176000F50720F0A21BB30BE40BF50B661F771FE8
:10177000881F991F1A9469F76095709580959095C8
:101780009B01AC01BD01CF010895EE0FFF1F059035
:10179000F491E02D099410E0C2E6D0E004C0FE010F
:1017A0000E94C50B2196C336D107C9F7F894FFCF25
:1017B00000000000EA010A0137013702A8014601D2
:1017C0005A010000000070020A0103036F02CC02FC
:1017D000E20257020D0A006E616E00696E66006FCC
:1017E00076660041540041542B434D47463D31003D
:1017F00041542B434D47533D222B31323334353640
:101800003738393022005761746572206C6576650F
:101810006C3A200041542B434D47533D222B39381D
:0A1820003736353433323130220000
:00000001FF
