:100000000C945D000C9485000C9485000C94850084
:100010000C9485000C9485000C9485000C9485004C
:100020000C9485000C9485000C9485000C9485003C
:100030000C9485000C9485000C9485000C9485002C
:100040000C94A0030C9485000C9410040C94EA0307
:100050000C9485000C9485000C9485000C9485000C
:100060000C9485000C9485000000000024002700FB
:100070002A0000000000250028002B0004040404CE
:100080000404040402020202020203030303030342
:10009000010204081020408001020408102001021F
:1000A00004081020000000080002010000030407FB
:1000B0000000000000000000120711241FBECFEF57
:1000C000D8E0DEBFCDBF22E0A2EAB1E001C01D92C0
:1000D000AB34B207E1F711E0A0E0B1E0EAE9F2E108
:1000E00002C005900D92A23AB107D9F710E0CDE514
:1000F000D0E004C02197FE010E944509CC35D1070C
:10010000C9F70E9442040C944B090C94000090E043
:10011000FC01EC55FF4F2491FC01E057FF4F349157
:10012000FC01E458FF4FE491EE23C9F0222339F09B
:10013000233001F1A8F4213019F1223029F1F0E047
:10014000EE0FFF1FEE58FF4FA591B4918FB7F894B3
:10015000EC91611126C030953E233C938FBF0895EA
:100160002730A9F02830C9F0243049F78091800069
:100170008F7D03C0809180008F7780938000DFCFD8
:1001800084B58F7784BDDBCF84B58F7DFBCF809125
:10019000B0008F778093B000D2CF8091B0008F7D78
:1001A000F9CF3E2BDACF3FB7F8948091A60190911A
:1001B000A701A091A801B091A90126B5A89B05C0EF
:1001C0002F3F19F00196A11DB11D3FBFBA2FA92FD6
:1001D000982F8827BC01CD01620F711D811D911DD3
:1001E00042E0660F771F881F991F4A95D1F708953F
:1001F0008F929F92AF92BF92CF92DF92EF92FF9237
:100200004B015C010E94D3006B017C010E94D30072
:100210006C197D098E099F09683E7340810591051F
:10022000A8F321E0821A9108A108B10888EEC80E4F
:1002300083E0D81EE11CF11C81149104A104B104D7
:1002400029F7FF90EF90DF90CF90BF90AF909F90F5
:100250008F900895AF92BF92CF92DF92EF92FF926C
:100260000F931F93CF93DF936C017B018B01040FDE
:10027000151FEB015E01AE18BF08C017D10759F07A
:100280006991D601ED91FC910190F081E02DC601BC
:100290000995892B79F7C501DF91CF911F910F91B6
:1002A000FF90EF90DF90CF90BF90AF900895FC014A
:1002B000538D448D252F30E0842F90E0821B930BCB
:1002C000541710F0CF96089501970895FC01918D71
:1002D000828D981761F0A28DAE0FBF2FB11D5D9674
:1002E0008C91928D9F5F9F73928F90E008958FEF16
:1002F0009FEF0895FC01918D828D981731F0828DCA
:10030000E80FF11D858D90E008958FEF9FEF089520
:100310002FB7F8948091AA019091AB01A091AC0104
:10032000B091AD012FBF8093B6019093B701A09318
:10033000B801B093B9018EEA91E00E947A0197FF6B
:1003400026C02FB7F8948091AA019091AB01A0919B
:10035000AC01B091AD012FBF4091B6015091B701F2
:100360006091B8017091B901841B950BA60BB70B76
:100370004091B2015091B3016091B4017091B50107
:1003800084179507A607B707B0F28FEF9FEF089580
:10039000FC01918D228D892F90E0805C9F4F821B04
:1003A00091098F73992708958EEA91E00E94C80100
:1003B00021E0892B09F420E0822F089580E090E06D
:1003C000892B29F00E94D40181110C94000008951A
:1003D000FC01A48DA80FB92FB11DA35ABF4F2C91BA
:1003E000848D90E001968F739927848FA689B789B1
:1003F0002C93A089B1898C91837080648C93938DA8
:10040000848D981306C00288F389E02D80818F7D4A
:1004100080830895EF92FF920F931F93CF93DF9302
:10042000EC0181E0888F9B8D8C8D98131AC0E88930
:10043000F989808185FF15C09FB7F894EE89FF89FF
:100440006083E889F98980818370806480839FBF9D
:1004500081E090E0DF91CF911F910F91FF90EF909D
:100460000895F62E0B8D10E00F5F1F4F0F731127AD
:10047000E02E8C8D8E110CC00FB607FCFACFE889E8
:10048000F989808185FFF5CFCE010E94E801F1CF87
:10049000EB8DEC0FFD2FF11DE35AFF4FF0829FB75C
:1004A000F8940B8FEA89FB8980818062CFCFCF934C
:1004B000DF93EC01888D8823B9F0AA89BB89E8898C
:1004C000F9898C9185FD03C0808186FD0DC00FB632
:1004D00007FCF7CF8C9185FFF2CF808185FFEDCFB0
:1004E000CE010E94E801E9CFDF91CF910895FC0190
:1004F00001900020E9F73197AF01481B590BBC016F
:100500008EEA91E00C942A018F929F92AF92BF9253
:100510000F931F93CF93DF93CDB7DEB7A1970FB69D
:10052000F894DEBF0FBECDBF19A2423008F44AE0F6
:100530008E010F5D1F4F842E912CB12CA12CA50193
:1005400094010E942309E62FB901CA01EA30F4F4AC
:10055000E05DD801EE938D01232B242B252B79F719
:1005600090E080E0109719F0CD010E947702A196EB
:100570000FB6F894DEBF0FBECDBFDF91CF911F91B4
:100580000F91BF90AF909F908F900895E95CE1CF5D
:10059000CF93DF930E947702EC0186E191E00E9405
:1005A00077028C0F9D1FDF91CF9108954F925F923C
:1005B0006F927F928F929F92AF92BF92CF92DF9273
:1005C000EF92FF926B017C01AC019B010E941E091E
:1005D0008823C1F089E191E00E9477027C0186E1E5
:1005E00091E00E9477028E0D9F1DFF90EF90DF90AB
:1005F000CF90BF90AF909F908F907F906F905F90C3
:100600004F90089546015701E894B7F82FEF3FEF58
:100610004FE75FE7C501B4010E941E0981110DC0BB
:100620002FEF3FEF4FE75FE7C501B4010E943F079F
:1006300018161CF48DE191E0CFCF2FEF3FEF4FE77D
:100640005FE4C701B6010E94190918161CF481E283
:1006500091E0C2CF2FEF3FEF4FE75FECC701B6014C
:100660000E943F0787FDF3CF20E030E0A901C701DA
:10067000B6010E943F07B12CA12C87FF0AC06DE292
:100680008EEA91E00E940A025C01F7FAF094F7F812
:10069000F0942AE037ED43EA5BE3C701B6010E941C
:1006A0007E082B013C010E94EA086B017C010E943C
:1006B00044079B01AC01C301B2010E947D082B01DC
:1006C0003C014AE0C701B6010E9484027C01EA0CA9
:1006D000FB1C6EE28EEA91E00E940A02E80EF91E0F
:1006E00020E030E040E251E4C301B2010E94A507DE
:1006F0002B013C010E94EA084B01B12CA12C4AE0DD
:10070000C501B4010E948402E80EF91EC501B401BE
:100710000E9444079B01AC01C301B2010E947D0805
:1007200020E030E040E251E40E94A5070E94EA0880
:1007300090E080E04AE00E948402E80EF91E4FCF6C
:100740001F920F920FB60F9211242F933F938F9306
:100750009F93AF93BF938091AA019091AB01A09119
:10076000AC01B091AD013091A50123E0230F2D37ED
:1007700058F50196A11DB11D2093A5018093AA01F2
:100780009093AB01A093AC01B093AD018091A60111
:100790009091A701A091A801B091A9010196A11D76
:1007A000B11D8093A6019093A701A093A801B093D7
:1007B000A901BF91AF919F918F913F912F910F9080
:1007C0000FBE0F901F90189526E8230F0296A11DCB
:1007D000B11DD2CF1F920F920FB60F9211242F93FB
:1007E0003F934F935F936F937F938F939F93AF93B9
:1007F000BF93EF93FF938EEA91E00E94E801FF918F
:10080000EF91BF91AF919F918F917F916F915F9188
:100810004F913F912F910F900FBE0F901F90189501
:100820001F920F920FB60F9211242F938F939F93C5
:10083000EF93FF93E091BE01F091BF018081E091C1
:10084000C401F091C50182FD1BC090818091C70158
:100850008F5F8F732091C801821741F0E091C7012B
:10086000F0E0E255FE4F958F8093C701FF91EF9125
:100870009F918F912F910F900FBE0F901F90189501
:100880008081F4CF789484B5826084BD84B5816022
:1008900084BD85B5826085BD85B5816085BD80914B
:1008A0006E00816080936E001092810080918100C3
:1008B00082608093810080918100816080938100BB
:1008C000809180008160809380008091B10084607D
:1008D0008093B1008091B00081608093B0008091DE
:1008E0007A00846080937A0080917A00826080939D
:1008F0007A0080917A00816080937A0080917A00FA
:10090000806880937A001092C100C3E0D0E08C2F01
:10091000FE01E057FF4F9491FE01E458FF4F2491F0
:10092000222399F030E0220F331FF901E859FF4FDD
:10093000A591B491F901EE58FF4F259134912FB74D
:10094000F894EC91E92BEC932FBF60E00E948700B4
:100950002196CD30D105D9F6E091BE01F091BF01CD
:1009600082E08083E091BA01F091BB011082E091B6
:10097000BC01F091BD018FEC80831092C601E09123
:10098000C201F091C30186E08083E091C001F09143
:10099000C101808180618083E091C001F091C1013B
:1009A000808188608083E091C001F091C1018081E5
:1009B00080688083E091C001F091C10180818F7DCA
:1009C0008083C0E0D0E011E08EEA91E00E94C8018F
:1009D000181619060CF0BAC00E948801FC0197FD98
:1009E000B5C08D32910509F04CC0812C912C80E866
:1009F000A82E8FE3B82EC12CD12C760100E0712CEB
:100A0000E130F10559F1ED32F10509F447C0EE325C
:100A1000F10509F446C0CF01C0970A97F8F4AAE09F
:100A2000B0E0A70196010E9463086F01FF0FEE0876
:100A3000FF08C60ED71EE81EF91E80E3C81AD108AB
:100A4000E108F108002351F02DEC3CEC4CEC5DE3A7
:100A5000C501B4010E94A5074B015C018EEA91E03B
:100A60000E9466010E948801FC01C0970A9740F22B
:100A7000EE32F105C1F4002319F2072D711019C0EF
:100A800028C0C0970A9708F4B0CFEE32F10509F4F8
:100A9000ACCF8EEA91E00E9466019ECF77247394DA
:100AA000DDCF01E0DBCFE130F10509F4A9CF7720FC
:100AB00041F0F094E094D094C094C11CD11CE11C8E
:100AC000F11CC701B6010E9446072B013C0100231F
:100AD00051F0C701B6010E944607A50194010E948A
:100AE000A5072B013C0120E030E0A901C301B201C0
:100AF0000E941909181654F520E030EE43E854E43A
:100B0000C301B2010E943F07181604F1A30192012C
:100B100060E070EE83E894E40E947D086B017C0144
:100B20002091000130910101409102015091030197
:100B30000E943F07882351F01093A401C092000146
:100B4000D0920101E0920201F09203018091A40190
:100B5000882309F45CC1C0900001D0900101E090AD
:100B60000201F090030120E030E048EC52E4C701BC
:100B7000B6010E94190961E018160CF060E083E0EC
:100B80000E94870020E030E048E453E4C701B6014A
:100B90000E94190961E018160CF060E084E00E94E0
:100BA000870020E030E046E953E4C701B6010E9427
:100BB000190961E018160CF060E085E00E948700DA
:100BC00020E030E048EC53E4C701B6010E94190967
:100BD00061E018160CF060E086E00E94870020E0DB
:100BE00030E04AEF53E4C701B6010E94190961E001
:100BF00018160CF060E087E00E94870020E030E0EB
:100C000046E154E4C701B6010E94190961E01816D3
:100C10000CF060E088E00E94870020E030E04FE2C6
:100C200054E4C701B6010E94190961E018160CF0DE
:100C300060E089E00E94870020E030E048E454E46E
:100C4000C701B6010E94190961E018160CF060E0B6
:100C50008AE00E94870020E030E041E654E4C701CA
:100C6000B6010E94190961E018160CF060E08BE0F3
:100C70000E94870020E030E04AE754E4C701B60153
:100C80000E94190961E018160CF060E08CE00E94E7
:100C9000870085E291E00E947702609100017091E7
:100CA000010180910201909103010E94D60220E08F
:100CB00030E041E654E460910001709101018091BF
:100CC0000201909103010E9419091816ECF5809118
:100CD000A301811139C083E391E00E94C80268EE4C
:100CE00073E080E090E00E94F80086E391E00E94CB
:100CF000C80268EE73E080E090E00E94F80080E4B3
:100D000091E00E94C80268EE73E080E090E00E94EB
:100D1000F80088E591E00E947702609100017091EF
:100D2000010180910201909103010E94D6026AE1C3
:100D30008EEA91E00E940A0260ED77E080E090E0A8
:100D40000E94F8001093A30120E030E84DE654E43F
:100D50006091000170910101809102019091030165
:100D60000E9419091816ECF58091A201811139C071
:100D700083E391E00E94C80268EE73E080E090E0B7
:100D80000E94F80086E391E00E94C80268EE73E0DA
:100D900080E090E00E94F8008FE691E00E94C80297
:100DA00068EE73E080E090E00E94F80087E891E050
:100DB0000E9477026091000170910101809102010F
:100DC000909103010E94D6026AE18EEA91E00E94AE
:100DD0000A0260ED77E080E090E00E94F800109356
:100DE000A20120E030E041E654E4609100017091FE
:100DF000010180910201909103010E943F0787FF4A
:100E000004C01092A3011092A2011092A401209795
:100E100009F4DACD0E94D401882309F4D5CD0E94CB
:100E20000000D2CDEEEAF1E01382128288EE93E068
:100E3000A0E0B0E084839583A683B78388E091E047
:100E40009183808385EC90E09587848784EC90E0A3
:100E50009787868780EC90E0918B808B81EC90E087
:100E6000938B828B82EC90E0958B848B86EC90E068
:100E7000978B868B118E128E138E148E08950E947E
:100E8000810708F481E00895E89409C097FB3EF4D7
:100E900090958095709561957F4F8F4F9F4F9923C7
:100EA000A9F0F92F96E9BB279395F6958795779545
:100EB0006795B795F111F8CFFAF4BB0F11F460FF05
:100EC0001BC06F5F7F4F8F4F9F4F16C0882311F05D
:100ED00096E911C0772321F09EE8872F762F05C071
:100EE000662371F096E8862F70E060E02AF09A950C
:100EF000660F771F881FDAF7880F9695879597F901
:100F00000895990F0008550FAA0BE0E8FEEF16169A
:100F10001706E807F907C0F012161306E407F507ED
:100F200098F0621B730B840B950B39F40A2661F061
:100F3000232B242B252B21F408950A2609F4A14004
:100F4000A6958FEF811D811D08950E94B8070C940E
:100F500029080E941B0838F00E94220820F09523DF
:100F600011F00C9412080C94180811240C945D08CC
:100F70000E943A0870F3959FC1F3950F50E0551FFA
:100F8000629FF001729FBB27F00DB11D639FAA27DE
:100F9000F00DB11DAA1F649F6627B00DA11D661F2D
:100FA000829F2227B00DA11D621F739FB00DA11D4E
:100FB000621F839FA00D611D221F749F3327A00D08
:100FC000611D231F849F600D211D822F762F6A2FA4
:100FD00011249F5750409AF0F1F088234AF0EE0F09
:100FE000FF1FBB1F661F771F881F91505040A9F736
:100FF0009E3F510580F00C9412080C945D085F3FF1
:10100000E4F3983ED4F3869577956795B795F79571
:10101000E7959F5FC1F7FE2B880F911D96958795E9
:1010200097F9089597F99F6780E870E060E0089568
:101030009FEF80EC089500240A94161617061806F0
:101040000906089500240A941216130614060506CC
:101050000895092E0394000C11F4882352F0BB0F5D
:1010600040F4BF2B11F460FF04C06F5F7F4F8F4FC0
:101070009F4F089557FD9058440F551F59F05F3FFB
:1010800071F04795880F97FB991F61F09F3F79F0AA
:1010900087950895121613061406551FF2CF46952C
:1010A000F1DF08C0161617061806991FF1CF8695AE
:1010B0007105610508940895E894BB276627772792
:1010C000CB0197F908950E946E08A59F900DB49FDB
:1010D000900DA49F800D911D11240895A29FB00131
:1010E000B39FC001A39F700D811D1124911DB29F5C
:1010F000700D811D1124911D08955058BB27AA27FA
:101100000E9495080C9429080E941B0838F00E9440
:10111000220820F039F49F3F19F426F40C941808A3
:101120000EF4E095E7FB0C941208E92F0E943A08B0
:1011300058F3BA17620773078407950720F079F40C
:10114000A6F50C945C080EF4E0950B2EBA2FA02D9A
:101150000B01B90190010C01CA01A0011124FF2764
:10116000591B99F0593F50F4503E68F11A16F0405F
:10117000A22F232F342F4427585FF3CF469537955E
:101180002795A795F0405395C9F77EF41F16BA0B23
:10119000620B730B840BBAF09150A1F0FF0FBB1FD1
:1011A000661F771F881FC2F70EC0BA0F621F731F1A
:1011B000841F48F4879577956795B795F7959E3F77
:1011C00008F0B0CF9395880F08F09927EE0F979508
:1011D000879508950E94420888F09F5798F0B92F8C
:1011E0009927B751B0F0E1F0660F771F881F991F5C
:1011F0001AF0BA95C9F714C0B13091F00E945C089A
:10120000B1E008950C945C08672F782F8827B85FA9
:1012100039F0B93FCCF3869577956795B395D9F7B3
:101220003EF490958095709561957F4F8F4F9F4FBD
:1012300008950E94810708F48FEF08950E948107A6
:10124000880B990B0895A1E21A2EAA1BBB1BFD0166
:101250000DC0AA1FBB1FEE1FFF1FA217B307E40795
:10126000F50720F0A21BB30BE40BF50B661F771FED
:10127000881F991F1A9469F76095709580959095CD
:101280009B01AC01BD01CF010895EE0FFF1F05903A
:0A129000F491E02D0994F894FFCFCB
:10129A00000080BF000000000A022A01570157021D
:1012AA00C80166017A010D0A006E616E00696E66F8
:1012BA00006F7666005761746572206C6576656C9E
:1012CA003A200041540041542B434D47463D3100DA
:1012DA0041542B434D47533D222B39313536373450
:1012EA0035363738383622005761746572206C6596
:1012FA0076656C2065786365656465643A200041AB
:10130A00542B434D47533D222B3931383635343926
:10131A0032343535352200557267656E742077612F
:10132A00746572206C6576656C20616C6572743ABE
:02133A00200091
:00000001FF
